:020000040800F2
:10000000000001204D1600083306000835060008E0
:1000100037060008390600083B060008000000000B
:100020000000000000000000000000003D06000885
:100030003F060008000000004106000843060008D3
:1000400095160008951600089516000895160008E4
:1000500095160008951600089516000895160008D4
:1000600095160008951600089516000895160008C4
:1000700095160008951600089516000895160008B4
:1000800095160008951600089516000895160008A4
:100090009516000895160008951600089516000894
:1000A0009516000895160008951600089516000884
:1000B0009516000895160008951600089516000874
:1000C0009516000895160008951600089516000864
:1000D0009516000895160008951600089516000854
:1000E0009516000895160008951600089516000844
:1000F0009516000895160008951600089516000834
:100100009516000895160008951600089516000823
:100110009516000895160008951600089516000813
:100120009516000895160008951600089516000803
:1001300000000000000000000000000000000000BF
:1001400000000000000000000000000000000000AF
:10015000000000000000000000000000000000009F
:10016000000000000000000000000000000000008F
:10017000000000000000000000000000000000007F
:10018000000000000000000000000000000000006F
:10019000000000000000000000000000000000005F
:1001A000000000000000000000000000000000004F
:1001B000000000000000000000000000000000003F
:1001C000000000000000000000000000000000002F
:1001D000000000000000000000000000000000001F
:0401E0005FF8E0F1F3
:1001E400044B05481B1A062B02D9044B03B11847CC
:1001F400704700BF270000202400002000000000FA
:1002040005490648091A891001EBD171491002D039
:10021400034B03B11847704724000020240000203A
:100224000000000010B5064C237843B9FFF7D8FF4F
:10023400044B13B10448AFF300800123237010BDB5
:1002440024000020000000009816000808B5084BA0
:100254001BB108490848AFF300800848036813B984
:10026400BDE80840CCE7064B002BF9D09847F7E7E8
:100274000000000028000020981600082400002038
:100284000000000070B50F4E0F4D761BB61018BF5E
:10029400002405D0013455F8043B9847A642F9D10F
:1002A4000A4E0B4D01F0F6F9761BB61018BF002468
:1002B40006D0013455F8043B9847A642F9D170BDE5
:1002C40070BD00BFE81C0008E81C0008EC1C000816
:1002D400E81C000870B4860746D0541E002A41D09A
:1002E400CAB2034602E014F1FF343BD303F8012BF6
:1002F4009D07F8D1032C2ED9CDB245EA05250F2C44
:1003040045EA054519D9264603F11002103E0F2E81
:1003140042F8105C42F80C5C42F8085C42F8045C59
:1003240002F11002F2D8A4F1100222F00F0204F03C
:100334000F041032032C13440DD91E462246043AEE
:10034400032A46F8045BFAD8221F22F0030204327F
:10035400134404F003042CB1C9B21C4403F8011B78
:100364009C42FBD170BC704714460346C2E700BFF1
:1003740030B591B02822002106A8FFF7ABFF002476
:1003840001940294039404940594012206924FF478
:10039400803307930A9202250D950E934FF4E013D0
:1003A4000F9306A800F0C8FC0F2301930295039451
:1003B4004FF4806304930594294601A800F0FAFEE3
:1003C40011B030BD08B500F069FCFFF7D1FF00F0B3
:1003D40011F800F027F800F0A1F800F0DAF800F0C6
:1003E400BBF80249022000F011F9FEE7C416000828
:1003F4007047000082B00A4B9A6942F004029A6185
:100404009A6902F004020092009A9A6942F0080282
:100414009A619B6903F008030193019B02B0704742
:100424000010024008B50B480B4B03600B4B4360B4
:1004340000238360C3604FF480420261436183619F
:10044400C361036200F080FA00B908BDFFF7D0FF72
:10045400FBE700BF4000002000540040A0860100DC
:1004640010B586B0002302930393049305930268A6
:10047400114B9A4201D006B010BD104CA36943F051
:100484000803A361A36903F008030093009BC0233E
:100494000293122303930323059302A9084800F04F
:1004A40053FFE36943F40013E361E36903F40013C6
:1004B4000193019BDFE700BF00540040001002409D
:1004C400000C014000B587B006AA02F8010D4FF4F4
:1004D4008073029301230193009200227821034840
:1004E40000F002FB07B05DF804FB00BF40000020F1
:1004F40000B587B006AA02F8010D4FF48073029389
:1005040001230193009240227821034800F0ECFA81
:1005140007B05DF804FB00BF4000002010B584B0B4
:10052400002411E04FF48073029301230193084ADD
:100534002244009200227821064800F0D5FA642073
:1005440000F0D0FB0134E4B21A2CEBD904B010BD96
:10055400000000204000002038B5002509E00020FC
:10056400FFF7C6FF0134E4B214F0800FF7D0013571
:10057400EDB2072D0CD8A5F15000C0B2FFF7A2FFD1
:100584000020FFF79FFF1020FFF79CFF0024EBE7FC
:1005940038BD08B58D20FFF795FF1420FFF792FFB3
:1005A400AF20FFF78FFF08BD2DE9F0410746023168
:1005B4005FFA81F8134D551B00260EE0EBB2124A88
:1005C40002EB0313185DFFF793FF0134E4B2072C29
:1005D400F4D90137FFB20136F6B2012E0FD8A7F1D4
:1005E4005000C0B2FFF76EFF4FEA18101030FFF74B
:1005F40069FF08F00F00FFF765FF0024E7E7BDE897
:10060400F08100BFCC1C0008CC16000870B506466B
:100614000A46002407E0551C21463046FFF7C4FF74
:100624000134E4B22A461378002BF4D170BD70472C
:10063400FEE7FEE7FEE7FEE770477047704708B540
:1006440000F03EFB08BD000082B00E4B9A6942F0F8
:1006540001029A619A6902F001020092009ADA6931
:1006640042F08052DA61DB6903F080530193019B0D
:10067400054A536823F0E06343F00073536002B00B
:10068400704700BF001002400000014003685A692F
:1006940012F4806F11D06FF480625A6100230363F7
:1006A400202280F83D2080F83E30026C42F00402A3
:1006B400026480F83C300120704700207047F8B590
:1006C40006460C4617461D4622E000F005FB069B35
:1006D400C01A854200D3DDB900233363202286F893
:1006E4003D2086F83E30326C42F02002326486F8B7
:1006F4003C300120F8BD33685B6924EA03039BB2F4
:10070400B3FA83F35B09BB420FD1B5F1FF3FDCD1F0
:10071400C4F30743012BEED033689B6924EA030337
:100724009BB2B3FA83F35B09EDE70020F8BDF8B59B
:1007340004460D4616461F463CE01A6842F4007211
:100744001A6023686FF480625A61002323632022B5
:1007540084F83D2084F83E30226C42F00402226486
:1007640084F83C300120F8BD00F0B6FAC01B864284
:1007740000D3FEB900232363202284F83D2084F8AB
:100784003E30226C42F02002226484F83C30012086
:10079400F8BD23685B6925EA03039BB2003318BFE5
:1007A4000123A3B123685A6912F4806FC5D1B6F14D
:1007B400FF3FD9D1C5F30743012BEAD023689B69D6
:1007C40025EA03039BB2003318BF0123E9E70020A5
:1007D400F8BD70B504460D46164623685B6913F0F0
:1007E400800F1CD12046FFF751FFD0B9B5F1FF3F70
:1007F400F3D000F071FA801B854201D3002DECD1B7
:1008040000232363202284F83D2084F83E30226CA8
:1008140042F02002226484F83C30012070BD0020A4
:1008240070BD012070BD00002DE9F04184B0044684
:100834000E46174698460B9D0268136843F480736E
:10084400136000950A9B00224FF00111FFF737FF58
:1008540020B10123184604B0BDE8F081236806F0F6
:10086400FE061E612B460A9A21492046FFF75FFFC8
:1008740008B10123EEE70023039323685A69039226
:100884009B690393039B2A460A992046FFF7A1FF1D
:10089400034658B1236C042B01D00123DAE7226804
:1008A400136843F4007313600123D3E7B8F1010F15
:1008B4000ED023683A0A1A612A460A992046FFF79D
:1008C40088FF034678B1236C042B05D00123C1E7CC
:1008D4002268FFB21761BDE72268136843F400730E
:1008E40013600123B6E72268FFB21761B2E700BFC5
:1008F4000200010070B504460D46164623685B6984
:1009040013F0040F1CD12046FFF7C0FED0B9B5F197
:10091400FF3FF3D000F0E0F9801B854201D3002DA6
:10092400ECD100232363202284F83D2084F83E3058
:10093400226C42F02002226484F83C30012070BD15
:10094400002070BD012070BD002800F0BE80F8B505
:10095400044690F83D30002B6BD0242384F83D30BE
:100964002268136823F00103136000F0DDFC626861
:10097400584B9A4262D8584B98428CBF00230123AB
:10098400002B40F0A480554BA3FB00239A0C216854
:100994004B6823F03F0313434B602568296A21F019
:1009A4003F0166684B4B9E424ED8531C0B432B624F
:1009B4002268D16921F44F4121F0FF016368454D5C
:1009C400AB424BD801385B00B0FBF3F30133C3F304
:1009D4000B03042B38BF04230B43D36121680B683A
:1009E40023F0C003E269206A024313430B602168C9
:1009F4008B6823F4034323F0FF032269E068024376
:100A040013438B602168CB6823F0FF036269A069FC
:100A140002431343CB602268136843F0010313605D
:100A240000202064202384F83D30206384F83E00B5
:100A3400F8BD80F83C30FFF713FD8EE7284B984251
:100A44008CBF002301239BE74FF4967303FB02F34F
:100A5400244AA2FB03239B090133A7E7A668BEB976
:100A6400451E03EB4307B5FBF7F50135C5F30B054D
:100A7400B5FA85F56D0935BBC6B9013803EB4303F7
:100A8400B0FBF3F30133C3F30B0343F40043A3E7D5
:100A9400451E03EB830707EB8707B5FBF7F5013525
:100AA400C5F30B05B5FA85F56D09E4E7013803EBE9
:100AB400830303EB8303B0FBF3F30133C3F30B03AF
:100AC40043F4404388E7012386E70120704701206F
:100AD400F8BD00BFA08601007F841E0083DE1B4397
:100AE400FF083D00D34D62102DE9F04182B0044669
:100AF4000E461746984600F0EFF894F83D30DBB206
:100B0400202B04D00223184602B0BDE8F08105462C
:100B14000090192301224C492046FFF7D0FD08B16B
:100B24000223F0E794F83C30012B00F08880012385
:100B340084F83C3023681A6812F0010F03D11A6854
:100B440042F001021A602268136823F40063136000
:100B5400212384F83D30402384F83E30002323646D
:100B6400089B6362BDF824306385638D2385374B0E
:100B7400E36201950A9B009343463A463146204678
:100B8400FFF752FE00285CD1238D002B36D02A4675
:100B94000A992046FFF71DFE20BB2368626A12787B
:100BA4001A61616A4B1C6362228D013A92B22285FA
:100BB400638D9BB2013B9BB263852368586910F037
:100BC400040FE1D0002ADFD04A781A61636A013346
:100BD4006362238D013B2385638D9BB2013B9BB2F2
:100BE4006385D1E7236C042B01D001238BE72268B2
:100BF400136843F400731360012384E72A460A99B7
:100C04002046FFF777FE034658B1236C042B01D02E
:100C1400012378E72268136843F400731360012307
:100C240071E721680A6842F400720A60202284F89D
:100C34003D20002284F83E2084F83C2063E7022310
:100C440061E701235FE700BF020010000000FFFF1F
:100C540010B504460E4B18784FF47A73B3FBF0F3D7
:100C64000C4A1068B0FBF3F000F0B2FC68B90F2C2A
:100C740001D9012010BD002221464FF0FF3000F0C1
:100C840075FC054B1C60002010BD012010BD00BF89
:100C94001B000020200000201C00002008B5074A8B
:100CA400136843F010031360032000F04DFC002090
:100CB400FFF7CEFFFFF7C8FC002008BD002002406C
:100CC400034A1168034B1B780B441360704700BF41
:100CD400940000201B000020014B1868704700BFDF
:100CE4009400002038B50446FFF7F6FF0546B4F13A
:100CF400FF3F02D0044B1B781C44FFF7EDFF401B61
:100D04008442FAD838BD00BF1B00002082B0084BD3
:100D14001B68084AA2FB03235B0A00FB03F0019053
:100D240000BF019B5A1E0192002BF9D102B07047FB
:100D340020000020D34D6210002800F0F58170B52A
:100D440082B00446036813F0010F3DD0AB4B5B68DF
:100D540003F00C03042B2ED0A84B5B6803F00C03A8
:100D6400082B23D06368B3F5803F51D0002B55D1B5
:100D740003F1804303F504331A6822F480321A60C5
:100D84001A6822F480221A606368002B60D0FFF78F
:100D9400A3FF0546994B1B6813F4003F14D1FFF7DA
:100DA4009BFF401B6428F5D90320C2E1934B5B6889
:100DB40013F4803FD6D0914B1B6813F4003F03D04B
:100DC4006368002B00F0B281236813F0020F65D032
:100DD4008A4B5B6813F00C0F4ED0884B5B6803F0B2
:100DE4000C03082B43D02369002B79D00122844BB8
:100DF4001A60FFF771FF0546804B1B6813F0020F62
:100E040065D1FFF769FF401B0228F5D9032090E163
:100E14007A4A136843F480331360B5E7B3F5A02F1F
:100E240009D0764B1A6822F480321A601A6822F4C8
:100E340080221A60A8E703F18043A3F53C331A68C3
:100E440042F480221A601A6842F480321A609BE7E6
:100E5400FFF742FF0546694B1B6813F4003FB3D00C
:100E6400FFF73AFF401B6428F5D9032061E1634B87
:100E74005B6813F4803FB6D1604B1B6813F0020F1C
:100E840004D02369012B01D0012052E15B4A13688D
:100E940023F0F803616943EAC1031360236813F084
:100EA400080F32D0A369002B6ED00122554B1A6073
:100EB400FFF712FF0546514B5B6A13F0020F21D175
:100EC400FFF70AFF401B0228F5D9032031E14B4A02
:100ED400136823F0F803616943EAC1031360DDE793
:100EE4000022474B1A60FFF7F7FE0546434B1B6889
:100EF40013F0020FD2D0FFF7EFFE401B0228F5D902
:100F0400032016E10120FFF701FF236813F0040F0B
:100F140000F09880394BDB6913F0805F46D1374B82
:100F2400DA6942F08052DA61DB6903F0805301939D
:100F3400019B0125344B1B6813F4807F38D0E36890
:100F4400012B49D0002B4DD103F1804303F5043329
:100F54001A6A22F001021A621A6A22F004021A6260
:100F6400E368002B5CD0FFF7B7FE0646234B1B6AF1
:100F740013F0020F65D1FFF7AFFE801B41F28833F7
:100F84009842F3D90320D4E000221E4B1A60FFF7E5
:100F9400A3FE0546194B5B6A13F0020FB5D0FFF7A9
:100FA4009BFE401B0228F5D90320C2E00025C1E7BF
:100FB400154A136843F480731360FFF78DFE0646E9
:100FC400114B1B6813F4807FB9D1FFF785FE801B9A
:100FD4006428F5D90320ACE0084A136A43F00103FE
:100FE4001362BDE7052B11D0044B1A6A22F00102EB
:100FF4001A621A6A22F004021A62B1E7001002406F
:101004000000424280044242007000404C4B1A6A85
:1010140042F004021A621A6A42F001021A629FE75D
:10102400FFF75AFE0646464B1B6A13F0020F08D020
:10103400FFF752FE801B41F288339842F3D9032014
:1010440077E0E5B9E369002B72D03D4A526802F0BB
:101054000C02082A56D0022B17D00022394B1A60F2
:10106400FFF73AFE0446364B1B6813F0007F47D067
:10107400FFF732FE001B0228F5D9032059E0304A5D
:10108400D36923F08053D361DCE700222D4B1A602F
:10109400FFF722FE05462A4B1B6813F0007F06D09B
:1010A400FFF71AFE401B0228F5D9032041E0236A0A
:1010B400B3F5803F1AD022494B6823F47413226A93
:1010C400606A024313434B6001221E4B1A60FFF710
:1010D40003FE04461A4B1B6813F0007F0ED1FFF782
:1010E400FBFD001B0228F5D9032022E0144A5368B3
:1010F40023F40033A1680B435360DCE7002018E0BD
:10110400002016E0012B16D00D4B5B6803F48031F0
:10111400226A914201D001200BE003F47013626A49
:1011240093420AD0012004E001207047012000E02E
:10113400002002B070BD0120FBE70020F9E700BFEA
:10114400001002406000424210B586B0154C94E88D
:101154000F000DF1180E0EE90F00238AADF80430CC
:10116400114B5B6803F00C02082A18D1C3F38342C5
:10117400724412F8102C13F4803F03D10B4800FB87
:1011840002F00DE0084B5B68C3F34043734413F86B
:10119400143C074800FB02F0B0FBF3F000E0044805
:1011A40006B010BDB01600080010024000093D0052
:1011B40000127A00002800F0A38070B50446524B58
:1011C4001B6803F007038B420CD24F4A136823F0C9
:1011D40007030B431360136803F00703994201D01C
:1011E400012070BD236813F0020F17D013F0040F11
:1011F40004D0464A536843F4E0635360236813F011
:10120400080F04D0414A536843F4605353603F4A83
:10121400536823F0F003A068034353600D4623682A
:1012240013F0010F31D06368012B20D0022B25D09D
:10123400364A126812F0020F64D034494A6822F028
:10124400030213434B60FFF747FD06462F4B5B68D1
:1012540003F00C036268B3EB820F16D0FFF73CFD7A
:10126400801B41F288339842F0D9032070BD274A8D
:10127400126812F4003FE0D1012070BD234A1268C5
:1012840012F0007FD9D1012070BD1F4B1B6803F001
:1012940007039D420CD21C4A136823F007032B4317
:1012A4001360136803F007039D4201D0012070BD51
:1012B400236813F0040F06D0144A536823F4E06340
:1012C400E1680B435360236813F0080F07D00F4AFB
:1012D400536823F46053216943EAC1035360FFF761
:1012E40033FF0A4B5B68C3F30313094AD35CD8404A
:1012F400084B1860084B1868FFF7AAFC002070BD63
:1013040001207047012070BD0020024000100240FF
:10131400D01C0008200000201C000020014B18688D
:10132400704700BF2000002008B5FFF7F7FF044B0B
:101334005B68C3F30223034AD35CD84008BD00BFF3
:1013440000100240E01C0008F0B583B000263446CB
:1013540079E0002D00F0AA80012D00D1CE68FF2B8A
:1013640000F2B8808646FF2B00F2B780A500DEF8B5
:1013740000200F27AF4022EA070206FA05F52A43A8
:10138400CEF800204A6812F0805F5BD0684A956905
:1013940045F001059561926902F001020192019AFA
:1013A400A208971C634D55F8275004F003074FEA31
:1013B400870E0F2707FA0EF725EA07055E4FB84296
:1013C40000F0918007F58067B84200F08E8007F541
:1013D4008067B84200F08B8007F58067B84200F060
:1013E400888007F58067B84200F0858007F580673C
:1013F400B84276D0062707FA0EF73D4302324D4F26
:1014040047F822504A6812F4803F76D04B4D2A6840
:101414001A432A604A6812F4003F74D0474D6A6840
:101424001A436A604A6812F4801F72D0434DAA6856
:101434001A43AA604A6812F4001F70D03F4DEA684C
:101444001343EB6001340B6833FA04F26DD00122CC
:10145400A24013409A42F5D14D68122D30D00BD8DA
:10146400022D2AD07FF675AF032D2FD0112D7FF4D6
:1014740076AFCE68043672E7314FBD4216D00CD930
:10148400304FBD4212D007F58037BD420ED0A7F5CC
:101494008017BD427FF463AF08E0A7F58017BD4213
:1014A40004D007F58037BD427FF459AF8D687DB114
:1014B400012D08D04261082651E7CE6808364EE770
:1014C400CE680C364BE70261082648E7002646E75B
:1014D400042644E700F1040E45E7A4F10805AD0035
:1014E40045E7052787E7002785E7012783E70227E4
:1014F40081E703277FE704277DE7104D2A6822EA66
:1015040003022A6086E70D4D6A6822EA03026A60D4
:1015140088E70A4DAA6822EA0302AA608AE7074D0F
:10152400EA6822EA0303EB608CE703B0F0BD00BF76
:101534000010024000000140000801400004014086
:101544000000211000003110074AD36823F4E0633F
:101554001B041B0C000200F4E060184340F0BF6061
:1015640040F40030D060704700ED00E030B4164B1A
:10157400DB68C3F30223C3F10704042C28BF04244B
:101584001D1D062D17D9033B012505FA04F4013C62
:101594002140994005FA03F3013B13401943002805
:1015A4000BDB0901C9B200F1604000F5614080F82D
:1015B400001330BC70470023E6E700F00F00090178
:1015C400C9B2024B1954F4E700ED00E014ED00E059
:1015D4000138B0F1807F0AD2064B5860F021064AE8
:1015E40082F823100020986007221A6070470120B7
:1015F400704700BF10E000E000ED00E00F4B1A68F8
:1016040042F001021A6059680D4A0A405A601A6889
:1016140022F0847222F480321A601A6822F4802242
:101624001A605A6822F4FE025A604FF41F029A604C
:101634004FF00062034B9A60704700BF00100240F5
:101644000000FFF800ED00E0002103E00B4B5B58C5
:10165400435004310A480B4B42189A42F6D30A4AC3
:1016640002E0002342F8043B084B9A42F9D3FFF707
:10167400C5FFFEF707FEFEF7A5FE7047F01C000845
:1016840000000020240000202400002098000020F6
:10169400FEE70000F8B500BFF8BC08BC9E467047E2
:0C16A400F8B500BFF8BC08BC9E467047BB
:1016B00002030405060708090A0B0C0D0E0F101093
:1016C0000102000074696E61796900000000000089
:1016D000000000000000000000000000000038FCD6
:1016E000FC3800000000000D0D000000000E1E0080
:1016F000001E0E00000000000000000020F8F8208E
:10170000F8F82000020F0F020F0F0200387C444748
:1017100047CC98000306041C1C07030030300080EF
:10172000C06030000C060301000C0C0080D87CE483
:10173000BCD84000070F0808070F080000101E0E55
:101740000000000000000000000000000000F0F8B1
:101750000C040000000003070C0800000000040C4B
:10176000F8F000000000080C0703000080A0E0C0B3
:10177000C0E0A0800002030101030200008080E0BD
:10178000E080800000000003030000000000000073
:10179000000000000000101E0E000000808080800D
:1017A00080808000000000000000000000000000B9
:1017B000000000000000000C0C0000000000008091
:1017C000C06030000C06030100000000F8FC04C4F7
:1017D00024FCF800070F0908080F0700001018FC88
:1017E000FC0000000008080F0F080800080C84C463
:1017F000643C18000E0F0908080C0C00080C444447
:1018000044FCB800040C0808080F0700C0E0B098BA
:10181000FCFC8000000000080F0F08007C7C4444A2
:10182000C4C48400040C0808080F0700F0F84C44F6
:1018300044C08000070F0808080F07000C0C048440
:10184000C47C3C0000000F0F00000000B8FC4444C2
:1018500044FCB800070F0808080F0700387C444410
:1018600044FCF800000808080C07030000000030E2
:1018700030000000000000060600000000000030FC
:10188000300000000000080E060000000080C0606C
:101890003018080000000103060C080040404040DA
:1018A000404040000202020202020200000818301A
:1018B00060C0800000080C0603010000181C04C46E
:1018C000E43C18000000000D0D000000F0F808C80E
:1018D000C8F8F000070F080B0B0B0100E0F0988C24
:1018E00098F0E0000F0F0000000F0F0004FCFC4414
:1018F00044FCB800080F0F08080F0700F0F80C04AC
:10190000040C180003070C08080C060004FCFC0477
:101910000CF8F000080F0F080C07030004FCFC444F
:10192000E40C1C00080F0F08080C0E0004FCFC441B
:10193000E40C1C00080F0F0800000000F0F80C84F5
:10194000848C980003070C0808070F00FCFC40403B
:1019500040FCFC000F0F0000000F0F00000004FC13
:10196000FC0400000000080F0F0800000000000445
:10197000FCFC0400070F08080F07000004FCFCC073
:10198000F03C0C00080F0F00010F0E0004FCFC04DB
:1019900000000000080F0F08080C0E00FCFC387057
:1019A00038FCFC000F0F0000000F0F00FCFC38702B
:1019B000E0FCFC000F0F0000000F0F00F0F80C041B
:1019C0000CF8F00003070C080C07030004FCFC44AF
:1019D000447C3800080F0F0800000000F8FC0404E5
:1019E00004FCF800070F080E3C3F270004FCFC44F1
:1019F000C4FC3800080F0F00000F0F00183C6444AF
:101A0000C49C1800060E0808080F0700001C0CFCF8
:101A1000FC0C1C000000080F0F080000FCFC00007C
:101A200000FCFC00070F0808080F0700FCFC000082
:101A300000FCFC000103060C06030100FCFC008016
:101A400000FCFC00030F0E030E0F03000C3CF0C063
:101A5000F03C0C000C0F0300030F0C00003C7CC09A
:101A6000C07C3C000000080F0F0800001C0C84C460
:101A7000643C1C000E0F0908080C0E000000FCFC62
:101A80000404000000000F0F080800003870E0C0D8
:101A9000800000000000000103070E0000000404A5
:101AA000FCFC0000000008080F0F0000080C0603F3
:101AB000060C08000000000000000000000000000C
:101AC000000000002020202020202020000003070C
:101AD00004000000000000000000000000A0A0A022
:101AE000E0C00000070F0808070F080004FCFC20F6
:101AF00060C08000080F0708080F0700C0E0202022
:101B000020604000070F0808080C040080C0602413
:101B1000FCFC0000070F0808070F0800C0E0A0A0A9
:101B2000A0E0C000070F0808080C040040F8FC44BF
:101B30000C180000080F0F0800000000C0E0202073
:101B4000C0E02000276F48487F3F000004FCFC40B5
:101B500020E0C000080F0F00000F0F00000020EC75
:101B6000EC0000000000080F0F080000000000005B
:101B700020ECEC0000307040407F3F0004FCFC8013
:101B8000C0602000080F0F01030E0C00000004FCD1
:101B9000FC0000000000080F0F080000E0E060C03B
:101BA00060E0C0000F0F000F000F0F0020E0C0200A
:101BB00020E0C000000F0F00000F0F00C0E0202049
:101BC00020E0C000070F0808080F070020E0C02031
:101BD00020E0C000407F7F48080F0700C0E02020C1
:101BE000C0E02000070F08487F7F400020E0C06071
:101BF0002060C000080F0F080000000040E0A02097
:101C000020604000040C09090B0E04002020F8FCA1
:101C1000202000000000070F080C0400E0E0000096
:101C2000E0E00000070F0808070F080000E0E000F0
:101C300000E0E0000003070C0C070300E0E00000F8
:101C400000E0E000070F0C070C0F07002060C080C9
:101C5000C0602000080C0703070C0800E0E000004B
:101C600000E0E000474F4848683F1F00606020A048
:101C7000E06020000C0E0B09080C0C00004040F83E
:101C8000BC040400000000070F080800000000BCAE
:101C9000BC0000000000000F0F000000000404BCA6
:101CA000F84040000008080F07000000080C040C72
:101CB000080C0400000000000000000080C060303C
:101CC00060C080000707040404070700200000002C
:101CD00000000000000000000102030406070809DC
:081CE0000000000001020304F2
:041CE800510200089D
:041CEC0029020008C1
:101CF000AE001040B081FFA1A6A83FC8D300D58098
:101D0000D805D9F1DA12D8308D14AF0110000000D7
:041D10000024F400B7
:040000050800164D8C
:00000001FF
